:020000002D28A9
:10000800803120007F08F1000B1C27282700131DD2
:100018001A2820000C0C890C0139F000700C7A1099
:1000280003187A1422008C147A1C8C107A1C242849
:100038000330F0007008F2000130F202031D20289E
:10004800270013110B1022008C1071082000FF00EC
:1000580009002E28FA012100A001A101A201A30193
:1000680020003628C4302000E900FF30EA001E30A6
:10007800EB000030EC00E501E301E401E601B42304
:10008800640022008C120C10C830F3000030F40019
:10009800CF23640022008C160C146430F300003067
:1000A800F400CF236400F221200029082100A501D3
:1000B800A507200028082100A401A407A601A7017C
:1000C8002708803AFF0080307F02031D6D2810301A
:1000D800260203188728210026353D3E8600870121
:1000E8002408C03F2508C13F0130A6070030A73DBE
:1000F8002708803AFF0080307F02031D85281030D2
:100108002602031C6F28200069082100240720000C
:10011800ED006A082100253D2000EE006B086D0700
:10012800E1006C086E3DE200F623E0290130DD07AE
:100138000030DE3D5E08803AFF0093307F02031DE9
:10014800A72888305D02031C572922008C12200042
:10015800DD01DE016408803AFF0080307F02031D64
:10016800B7280B306302031CC62820006908FB3E31
:10017800E900FF306A3DEA006B08053EEB000030FD
:100188006C3DEC002000E301E40166353D3E86004D
:1001980087016708C03F6808C13F0130B7003708CA
:1001A800E607103066020318E60100302100A300BC
:1001B8000030A2000030A1000030A000A601A70175
:1001C8002708803AFF0080307F02031DED28103099
:1001D800260203182029210026353D3E8600870186
:1001E800403F2000B700413FB8003708B900380841
:1001F800BA000030BA1BFF30BB00BC003908210030
:10020800A00720003A082100A13D20003B0821005A
:10021800A23D20003C082100A33D0130A607003084
:10022800A73D2708803AFF0080307F02031D1E2962
:1002380010302602031CEF2800302000A3000030F5
:10024800A2000030A1001030A000210023082000E7
:10025800A700210022082000A60021002108200074
:10026800A500210020082000A4000B23200021085D
:100278002100A501A507200020082100A401A4074A
:1002880020006908210024072000ED006A082100E9
:10029800253D2000EE006B086D07E1006C086E3DFF
:1002A800E20022008C1620006808803AB7006E0829
:1002B800803A3702031D62296D0867020318E02996
:1002C80022000C102000DF01E0010130E3070030BC
:1002D800E43D22008C120A30F3000030F400CF23F2
:1002E8002000E501E50AE0296208803AB7006808BD
:1002F800803A3702031D8229670861020318892999
:1003080022008C160C142000E5010A30F30000309E
:10031800F400CF2301302000DF070030E03D600803
:10032800803AFF0097307F02031D9C2970305F02DE
:10033800031CE0292000DF01E00168082100A50175
:10034800A507200067082100A401A407A601A701AA
:100358002708803AFF0080307F02031DB52910303E
:1003680026020318CF29210026353D3E8600870145
:100378002408C03F2508C13F0130A6070030A73D2B
:100388002708803AFF0080307F02031DCD291030F6
:100398002602031CB7292000690821002407200031
:1003A800ED006A082100253D2000EE006B086D076E
:1003B800E1006C086E3DE20064008D2374082000A3
:1003C800E801E8077308E701E7076508003A031939
:1003D8009A28013A03197829E029E0292000AE017A
:1003E800AF01FB291430F3000030F400CF23640080
:1003F8008D2374082000B601B6077308B501B50748
:100408003608803AFF0084307F02031D0D2AB03081
:1004180035020318F62920003608803AFF0081309B
:100428007F02031D192A2D303502031CF6292000EE
:100438003608AF01AF073508AE01AE078D23740843
:100448002000B601B6077308B501B5073608803A2B
:10045800FF0084307F02031D332AB03035020318B1
:10046800F62920003608803AFF0081307F02031DFC
:100478003F2A2D303502031CF62920002E09AA0038
:100488002F09AB00AA0A0319AB0A35082A07F3009B
:1004980036082B3DF400E8237408803AFF008030CA
:1004A8007F02031D592A0A3073020318F629200017
:1004B80035082100A000200036082100A100890D80
:1004C800893B8909A200A30020003508B00036083E
:1004D800B100890D893B8909B200B300B401B40A9F
:1004E8000A30200034020318E42A8D2374082000FF
:1004F800B601B6077308B501B5073009AA00310976
:10050800AB00AA0A0319AB0A35082A07F300360814
:100518002B3DF400E8237408803AFF0080307F0206
:10052800031D982A0A3073020318DE2A20003508B2
:10053800AA003608AB000030AB1BFF30AC00AD00A2
:100548002A082100A00720002B082100A13D200037
:100558002C082100A23D20002D082100A33D2000E9
:100568003408013EA000003003180130A100A201A8
:10057800A11BA2032208A300210023082000A70032
:10058800210022082000A600210021082000A50043
:10059800210020082000A4000B2320002308B3001A
:1005A8002208B2002108B1002008B0000130AA00DA
:1005B8002A08B4071430F3000030F400CF23742A5B
:1005C800B401023034020318042B640022008C1298
:1005D8000C10C830F3000030F400CF236400220070
:1005E8008C160C14C830F3000030F400CF2301300F
:1005F8002000AA002A08B40702303402031CE92AA2
:100608003108A901A9073008A801A8070800F501C1
:100618002000A31F1C2BA009A109A209A309A00A55
:100628000319A10A0319A20A0319A30AF501F50A75
:10063800A71F2D2BA409A509A609A709A40A031910
:10064800A50A0319A60A0319A70A0130F3007308BB
:10065800F5060030F9000030F8000030F7000030EF
:10066800F60023082204210420040319762BF40140
:10067800F40AA31B4B2B0130A035A10DA20DA30D2D
:10068800890B402B0130F3007308F4073D2B013030
:10069800F635F70DF80DF90D890B4C2B23082702B9
:1006A800031D602B22082602031D602B210825024A
:1006B800031D602B20082402031C6B2B2008A402B6
:1006C8002108A53B2208A63B2308A73B7614013046
:1006D800A336A20CA10CA00C890B6C2B0130F402E0
:1006E800031D4B2B75080319842BF609F709F80924
:1006F800F909F60A0319F70A0319F80A0319F90A96
:100708007908A3007808A2007708A1007608A0005D
:10071800080022001708FC390238970097170330A1
:1007280021009E041E088F3910389E0023000C16E5
:1007380021000C161D0883390C389D001D149D14CA
:100748009D18A42B1C08F6001B08F5000630F63689
:10075800F50C890BAB2B7508F3007608F40008003C
:1007680021001708C13912389700703099008C128F
:1007780022008C1623000C1021000C1022000C14EF
:1007880023000C1121000C1523008C1021008C1063
:1007980022008C1008007408730403190800043040
:1007A800F5007508F600A530F5007508F70001306A
:1007B800F702031DDB2B0130F602031DD72B013096
:1007C800F3020030F43BCF2BF41F08007309F50047
:1007D8007409F600F50A0319F60A7508F300760895
:1007E800F4000800270011151211C03093050B10F2
:0807F8008B158B170B1708008D
:020000040001F9
:04000E001CCEFFD92C
:00000001FF
